:020000040000fa
:080000000001040000000000f3
:020000040000fa
:040008005806000096
:020000040000fa
:04000c005806000092
:020000040000fa
:04001000580600008e
:020000040000fa
:04001400580600008a
:020000040000fa
:040018005806000086
:020000040000fa
:04001c005806000082
:020000040000fa
:04002000580600007e
:020000040000fa
:04002400580600007a
:020000040000fa
:040028005806000076
:020000040000fa
:04002c005806000072
:020000040000fa
:04003000580600006e
:020000040000fa
:0400340018020000ae
:020000040000fa
:040038005806000066
:020000040000fa
:04003c005806000062
:020000040000fa
:04004000580600005e
:020000040000fa
:040044004602000070
:020000040000fa
:040048005806000056
:020000040000fa
:04004c005806000052
:020000040000fa
:04005000580600004e
:020000040000fa
:04005400fa050000a9
:020000040000fa
:040058005806000046
:020000040000fa
:04005c005806000042
:020000040000fa
:04006000580600003e
:020000040000fa
:04006400580600003a
:020000040000fa
:040068005806000036
:020000040000fa
:04006c005806000032
:020000040000fa
:04007000580600002e
:020000040000fa
:04007400580600002a
:020000040000fa
:040078005806000026
:020000040000fa
:04007c005806000022
:020000040000fa
:04008000580600001e
:020000040000fa
:04008400580600001a
:020000040000fa
:040088005806000016
:020000040000fa
:04008c005806000012
:020000040000fa
:04009000580600000e
:020000040000fa
:04009400580600000a
:020000040000fa
:040098005806000006
:020000040000fa
:04009c005806000002
:020000040000fa
:0400a000bc0500009b
:020000040000fa
:0400a40058060000fa
:020000040000fa
:0400a80058060000f6
:020000040000fa
:0400ac0058060000f2
:020000040000fa
:0400b00058060000ee
:020000040000fa
:0400b40058060000ea
:020000040000fa
:0400b80058060000e6
:020000040000fa
:0400bc0058060000e2
:020000040000fa
:0400c00058060000de
:020000040000fa
:0400c40058060000da
:020000040000fa
:0400c80058060000d6
:020000040000fa
:0400cc0058060000d2
:020000040000fa
:0400d00058060000ce
:020000040000fa
:0400d40058060000ca
:020000040000fa
:0400d80058060000c6
:020000040000fa
:0400dc0058060000c2
:020000040000fa
:0400e00058060000be
:020000040000fa
:0400e40058060000ba
:020000040000fa
:0400e80058060000b6
:020000040000fa
:0400ec0058060000b2
:020000040000fa
:0400f00058060000ae
:020000040000fa
:0400f40058060000aa
:020000040000fa
:0400f80058060000a6
:020000040000fa
:0400fc0058060000a2
:020000040000fa
:04010000580600009d
:020000040000fa
:040104005806000099
:020000040000fa
:040108005806000095
:020000040000fa
:04010c005806000091
:020000040000fa
:04011000580600008d
:020000040000fa
:040114005806000089
:020000040000fa
:040118005806000085
:020000040000fa
:04011c005806000081
:020000040000fa
:04012000580600007d
:020000040000fa
:040124005806000079
:020000040000fa
:040128005806000075
:020000040000fa
:04012c005806000071
:020000040000fa
:04013000580600006d
:020000040000fa
:040134005806000069
:020000040000fa
:040138005806000065
:020000040000fa
:04013c005806000061
:020000040000fa
:04014000580600005d
:020000040000fa
:040144005806000059
:020000040000fa
:040148005806000055
:020000040000fa
:04014c005806000051
:020000040000fa
:04015000580600004d
:020000040000fa
:040154005806000049
:020000040000fa
:040158005806000045
:020000040000fa
:04015c005806000041
:020000040000fa
:04016000580600003d
:020000040000fa
:040164005806000039
:020000040000fa
:040168005806000035
:020000040000fa
:04016c005806000031
:020000040000fa
:040170002006000065
:020000040000fa
:040174005806000029
:020000040000fa
:040178005806000025
:020000040000fa
:04017c005806000021
:020000040000fa
:04018000580600001d
:020000040000fa
:040184005806000019
:020000040000fa
:040188005806000015
:020000040000fa
:04018c005806000011
:020000040000fa
:04019000580600000d
:020000040000fa
:040194005806000009
:020000040000fa
:040198005806000005
:020000040000fa
:04019c005806000001
:020000040000fa
:0401a00058060000fd
:020000040000fa
:0401a40058060000f9
:020000040000fa
:0401a80058060000f5
:020000040000fa
:0401ac0058060000f1
:020000040000fa
:0401b00058060000ed
:020000040000fa
:0401b40058060000e9
:020000040000fa
:0401b80058060000e5
:020000040000fa
:0401bc0058060000e1
:020000040000fa
:0401c00058060000dd
:020000040000fa
:0401c40058060000d9
:020000040000fa
:0401c80058060000d5
:020000040000fa
:0401cc0058060000d1
:020000040000fa
:0401d00058060000cd
:020000040000fa
:0401d40058060000c9
:020000040000fa
:0401d80058060000c5
:020000040000fa
:0401dc0058060000c1
:020000040000fa
:0401e00058060000bd
:020000040000fa
:0401e40058060000b9
:020000040000fa
:0401e80058060000b5
:020000040000fa
:0401ec0058060000b1
:020000040000fa
:0401f00058060000ad
:020000040000fa
:0401f40058060000a9
:020000040000fa
:0401f80058060000a5
:020000040000fa
:0401fc0058060000a1
:020000040000fa
:100200004fcd21000eff27000e01880000000000e6
:10021000000020000000e000020032000001200089
:100220002002880014000700180307000000e00007
:1002300003003a0060b92c000100200002003700e2
:100240000000200001002000810f7000010032003a
:1002500014000700000020000000e000020032004f
:100260000000020000000000d0cf020000000000eb
:100270000040da000000fe004440a90040252200b2
:100280000000e00003003200002020009001880000
:100290004440a800000006008a1f78008b1f7800e9
:1002a00000000600a1028800800478000000eb0036
:1002b0001f003700e284440054a0b4009905ba003e
:1002c000e284440054a0b4009906ba00e2844400d9
:1002d00054a0b4000006eb00476fde00fd07b2003b
:1002e000ae018800636ce10003003a00eaff0700fa
:1002f0000000eb000e003700606ce10008003a00df
:10030000004deb000a05e800020039003420ec0043
:100310000af0a0008b05e900f9ff3e000400370059
:100320006168e100010032000086eb000b0007006d
:1003300019c7ba001905ba000e04e00003003a001c
:100340000a00e000dbff3a0000000600fe07b200f2
:10035000ae0288008a047800f5ff37000cd0a300b5
:10036000e20f4d001c00390089027800354dba00bb
:100370000a05e800020039003420ec000af0a00071
:100380008b05e9000f003200254dba000a05e80090
:10039000020039003420ec000af0a0008b05e900cf
:1003a000080032000c00e0000600320015cdba0053
:1003b0000a05e800020039003420ec000af0a00031
:1003c0008b05e9008984e80054a0b4000b00e0002c
:1003d000e2ff3a00000006009902ba00055d7800cd
:1003e0008b05e900f7ff3200c82ade00055d7800c2
:1003f0008b05e900f3ff32000c00e000f1ff320052
:1004000019ddba00eeff3700a60b04000000000063
:100410003a10040000000000fc1804000000000076
:10042000462404000000000000000400000000005a
:10043000809fbe00829fbe000000fa000040800046
:100440001140800061004000e080480000408800ca
:10045000114088000240800013408000006a28009c
:1004600011002000800f5100818f590002003600da
:100470000028ef000228ef008860a9000080fa0041
:100480004f01be004f00be00004006003600f800dd
:10049000809fbe00829fbe00849fbe00869fbe00dc
:1004a0000400fa000000eb00000f78000000eb00f1
:1004b000100798002040800031408000610040001b
:1004c000e0804800204088003140880022408000c1
:1004d00033408000006a280011002000800f510086
:1004e000818f59000a0036000428ef000628ef002b
:1004f0000700370000000000050037000000000082
:100500000300370000000000010037000000000079
:10051000172907000000e0000a003a00332907000d
:100520002040800031408000c212200003002000e3
:10053000ea020700e00f5000e08f5800800132000f
:1005400085013700d628070008e8b7008180200021
:100550009140780030c4b30080cf500055003a007d
:1005600050408000e30f50005200340050408000a3
:100570000080e900417c2100e140780050c5b300d3
:1005800080cf500059003a00504080000000e90040
:10059000417c2100e140780020c5b30080cf5000ad
:1005a0004b003a005040800064005000417c210024
:1005b000e140780010c5b30080cf500046003a00fb
:1005c0005040800063005000417c2100e1407800f1
:1005d00090c4b30080cf500041003a0050408000ea
:1005e00065005000417c2100e1407800b0c2b300ba
:1005f00080cf50003c003a00604080000000e000e6
:100600001c003a0050408000e50f500019003400f3
:10061000602c2d00801f7800a40607008f87e9005a
:100620000000eb00000f78000c003700407c210038
:100630001e004000104078000000fb000c03070083
:10064000407c21001e00400010407800804078006f
:10065000e0832000ee6607001e0fe8005040800097
:10066000650050009e0f5000f0ff3c00502d2d0003
:100670000103070050002000504088005000200077
:10068000604088000e28ef001028ef001228ef00cd
:10069000022020008000eb00407c2100ed020700da
:1006a00062002000912d2d00407c2100e202070015
:1006b0000e003700604080000000e0000b003200b8
:1006c000604080000000e8006040880007003700bc
:1006d00000000000050037000000000003003700a4
:1006e00000000000010037000000000050408000c2
:1006f0008280200012417800417c210082707800c5
:100700000000e8005040880060408000ee0f50007c
:1007100013003600f12d2d00407c2100400307001e
:10072000100798001e0090000000e0000c0032004e
:100730001e0090006900400042002000812e2d0024
:100740000a0307000000e00003003a002000200038
:100750009040880002003700100020009040880080
:1007600050408000e10f50002a00340050408000cb
:100770000080e900417c2100e1407800e0c3b30043
:1007800080cf500023003a00504080000000e90074
:10079000417c2100e140780000c2b30080cf5000ce
:1007a0001c003a00407c2100801f7800d02e2d00d4
:1007b000801f78003d060700e48757000000eb002b
:1007c000000f780007003700407c21001e00400029
:1007d0001040780080407800e08320008c6607009d
:1007e0001e0fe800504080009e007800808f50006f
:1007f000f5ff35000e28ef001028ef001228ef005b
:100800000a28ef00022020008000eb00407c21003d
:100810009002070050408000e40f500035ff340084
:10082000504080000080e900417c21006140780058
:10083000ed4f500031ff3a00504080000000e900c9
:10084000417c210061407800ea4f50002dff3a00c2
:10085000904080000000e0000b00320080408000eb
:100860000000e800804088009140800080408000c7
:10087000808f500006003a000c28ef001000200086
:10088000704088000200370010002000704088008f
:1008900070408000e10f50001cff3a009140800042
:1008a00080408000808f500088003a009040800097
:1008b0000000e00085003200407c2100801f7800ad
:1008c00030302d00801f7800f8050700e4875700be
:1008d000f12d2d00407c2100d10207001007980067
:1008e0001e0090000000e0008c00320081312d00dd
:1008f000407c2100ca020700100798001e009000eb
:100900000000e000050032001000200020418800b7
:10091000f0312d005802070080003700812e2d0095
:10092000407c2100be020700100798001e009000c6
:100930000000e000440032001028ef0031c5b30091
:10094000808420003266070041c5b3008084200007
:100950002f66070011c4b300808420002c660700b6
:100960009e009000407c210061001000008f40003c
:10097000270037001e00e900417c2100614078001b
:10098000ed4f50000c003a00407c21001e0040005a
:1009900010407800ea4f500007003a008040800085
:1009a0000000e8008040880080408000e10f500097
:1009b000150034001a003700804080000000e0007d
:1009c00012003400407c21001e00400010407800de
:1009d000ed4f50000d003200407c21001e00400011
:1009e00010407800ea4f500008003200407c21009f
:1009f0001e00400010407800804078008084200075
:100a00000366070001003700000000001e0fe80029
:100a1000504080009e007800808f5000d5ff350048
:100a200051c4b30080842000f9650700e1c4b3001d
:100a300080842000f665070041c4b3008084200054
:100a4000f365070035003700a1332d00407c2100fd
:100a500073020700100798001e0090000000e000dd
:100a60000300320080342d00030207002b00370002
:100a700061362d00407c21006902070010079800b4
:100a80001e0090000000e00003003200f0362d0050
:100a9000f90107002100370081382d00407c21003a
:100aa0005f020700100798001e0090000000e000a1
:100ab0000300320010392d00ef0107001700370046
:100ac000a03a2d00ec01070014003700407c210003
:100ad000801f7800d02e2d00801f7800730507003e
:100ae000e48757000000eb00000f78000700370094
:100af000407c21001e0040001040780080407800bb
:100b0000e0832000c26507001e0fe800504080000f
:100b10009e007800808f5000f5ff35000e28ef0012
:100b20001028ef001228ef000a28ef000220200012
:100b30008000eb00407c2100c601070074fe3700f6
:100b40008b270700801f7800703c2d00801f7800e5
:100b500056050700e487570088e0a9000080fa00e6
:100b60004f03be004f02be004f01be004f00be004b
:100b70003600f900004006003600f800809fbe00f5
:100b8000829fbe00849fbe00869fbe000200fa00c6
:100b90000040eb00004f7800a01d8000004f78005f
:100ba0008bc0a900801d8000620060000000e00092
:100bb00002003200b023a900030037009e407800f5
:100bc0004083200092650700801d80006100600066
:100bd0000000e000f0ff3a000080fa004f03be0082
:100be0004f02be004f01be004f00be003600f900ac
:100bf00000400600801f78000200fa000040eb0071
:100c0000004f7800f01c8000004f78008960a90038
:100c1000d01c8000620060000000e0000100320093
:100c20009a23a900d01c8000610060000000e00051
:100c3000f4ff3a000080fa004f0078000040060000
:100c4000809fbe00821f78000200fa000040eb0087
:100c5000004f7800501e8000004f78009240a9009d
:100c6000301e8000620060000000e00002003200e0
:100c7000c623a90006003700804180001e4178008d
:100c800041562100827078000000e8008041880011
:100c9000301e8000610060000000e000edff3a00bf
:100ca0000080fa004f0178004f00be0000400600af
:100cb0000040da000000fe000a00fa0011002000e7
:100cc000b1bf9f00c0bf9f006a805700d7110700c7
:100cd0004fb897000080fa00000006000a00fa00f2
:100ce000e20f500034003e0080e68000e10f50002b
:100cf00003003200e20f500011003a000c003700f0
:100d0000833920000300e00001003a000040da00cf
:100d10009803e20002003500a023ef0099e3a80049
:100d20009b43ab000d003a009b43a8000b0037002b
:100d3000e33a20000300e00001003a000040da003e
:100d4000ae03e20002003500b623ef00afe3a800d7
:100d5000b143ab0001003a00b143a8008201780022
:100d60000b0037003102fb00e10f500004003a0095
:100d70009b23ab00feff3a00e41c88000300370011
:100d8000b123ab00feff3a00941d88008301e90007
:100d90000300e000f3ff3a00e10f500003003a00c7
:100da0009b03ab00feff32000b003700b103ab002a
:100db000feff32000800370033002000b3bf9f0061
:100dc000c0bf9f00d1bf9f00e2bf9f006a80570055
:100dd000981107006fb99700020078000080fa00b0
:100de000000006000a00fa0051002000b1bf9f0079
:100df000c0bf9f006a805700901107005fb897003e
:100e00000080fa0000000600889fbe008004780081
:100e100090e680000000e00004003a000e000700a9
:100e20000084eb000000e0000800350098e6800038
:100e30000900e00005003200090044000600070038
:100e40000000e00001003d000084eb000800780095
:100e50004f04be0000000600800078000100e000a2
:100e600003003a000000200090e688000000050022
:100e70000080eb0002002000828f500002003e0044
:100e800091e688000000eb0000000600000005006d
:100e9000889fbe008a9fbe008c1f780067000700f5
:100ea0006e00330003866c006450e1002e003200b7
:100eb0006420e100330032006150e1002f00320075
:100ec0006120e1003100320085855500eb07b0005c
:100ed0000900200008042000050037000804440031
:100ee00089844c000a0031000603430087834b00cd
:100ef0000001530081815b00f8ff33000203be0054
:100f00000800a0000804440089844c00f6ff390062
:100f1000c639dd0083017300010032001300200098
:100f20008904d1000884d3000998a3000500320089
:100f30000800a7000300a0008904d1000884d300a2
:100f40008b05e8008904d1000884d3000001eb0080
:100f50000281d2001300070001f0a1000cf0a700ed
:100f600001f0a000460037006420e1004800320094
:100f70000801be000200be00f7ff37006120e1005b
:100f8000430032006000b800f3ff3700000020008b
:100f900001f82700f0ff37004f89de00820178005a
:100fa0005100370081002000618055000b003d009a
:100fb0000b00200061fe2f000100e1001d00340045
:100fc00082817100610164008904d1000884d3002a
:100fd0000000e800faff3a007100200061006400a0
:100fe0000300700002006000090032006104440048
:100ff000e0844c000988a500050032008b05e8005c
:101000006808e10002003a008904d1000884d30096
:10101000f20f20000258e10005003d00c75ddd0031
:10102000f907b2008980750008007800000006000a
:101030000bf827008b007800000005000004be00bc
:10104000680007000003be000405be000200be00e9
:1010500064000700844f7500000006000200be0017
:101060006450e100050036006420e1000200360013
:101070000968a30001003a000800be000160a0005a
:101080004f0678004f05be004f04be00000006006a
:10109000f0ff2f00f1ff2700f9ff37006022b800b2
:1010a000060220000000d0008180d2000482d2001d
:1010b0008582d2000000a0000202520083825a0002
:1010c000030031000202420083824a000000a100b6
:1010d0000603e900f3ff3a0000000600efff0700f7
:1010e0000400be0000000600881f7800030478009a
:1010f0000300e00007003d0060001000e0801800e1
:1011000060011900e081190002003b0001f02d0090
:10111000030037000400070008f0a70001f0a0005a
:101120004f04780000000600889fbe008a9fbe0022
:1011300000827000040271000482710026003200f7
:101140000004be000200be006011b8006b09200060
:10115000950220000182cf000a0039000541b1004c
:101160000082cf00070039000541b1000982cf009d
:10117000040039000541b1000882cf0001003900a8
:101180000541b10005425200120032000a003b0046
:1011900082817100610164008100d1000080d30070
:1011a0008984d3000884d3008b05e8000442e8005a
:1011b000f7ff3a00070037000804440089844c0018
:1011c00000004800818048008b05e9000442e900e6
:1011d000f9ff3a0073ff07004f05be004f04be0041
:1011e00000000600c70ade00f107b200f50fb200ea
:1011f00008003200e1cf4200020032000170a0007e
:1012000024000500810f7000010032000408050071
:1012100044000500810f700002003a001400050030
:101220008502e9000000400081c04800fcff3b004f
:101230000170a00024000500800178000200370042
:10124000b15978000201e9000200e000fcff3a0019
:101250000000060080017800020037008159780004
:101260000201e9000200e000fcff3a000000060075
:10127000c19e21002a653700c19e2100ff0707009b
:10128000800078000080eb000100e00004003500e1
:10129000c19e2100a0002000216507004f80de00d4
:1012a0000000060000017800820178003204e000ae
:1012b000fdff3a0003017800b1417800035978003e
:1012c0000304e000fcff3a000000060002003700c3
:1012d0000304e000060032000001780002007800fc
:1012e000b041780081cf5100f9ff3a00010037008a
:1012f0000001eb0002007800000006000200370049
:101300000204e0000b003200810178000002780046
:1013100030417800b14f5100f9ff32001000200039
:1013200014427800934f5200030031000080eb001c
:10133000000006000000eb0000000600000178003d
:10134000b1417800035978000304e000fcff3a0043
:101350000000060080007800010178003104e00000
:10136000fdff3a0000005100000006000c003700ad
:10137000b0417800b1cf51000600320010002000cb
:101380009542780094cf52000b0031000080eb00b2
:10139000000006000304e000060032000201e9003c
:1013a00001027800800278000200e000f0ff3a00bd
:1013b000000005000000eb0000000600800178003e
:1013c00002003700845978000201e9000200e000c1
:1013d00006003200314278000404e000f9ff3a00d0
:1013e000020037008059eb000201e9000200e00032
:1013f000fcff3a00000006000001eb00000278004c
:10140000b041780081cf510001003a00040178001a
:101410000304e000f9ff3a00020078000000060033
:10142000889fbe0081047800194478000804e00019
:101430000e00320006003700d24178000304e000bd
:101440000a003200d1cf1100fbff32000000e8009b
:101450008800fb009dff07000000e0000300320051
:101460000901780080007800f3ff37004f04be00c8
:1014700000000600889fbe00810478000000e000a4
:1014800002003a00f8e5800001003700000478000f
:101490000800be0045080700000444001804e000ee
:1014a00004003a00c0cb2100f0e588000004eb0006
:1014b000070037000800be002b08070000004400aa
:1014c0001004e000010032000058eb00f0e5880055
:1014d000080078004f04be0000000600ee874700b9
:1014e000889fbe008a9fbe008c9fbe008e1f780022
:1014f000f0b79f00010678008205780000047800ac
:10150000080578000a047800b84678000d00fb0052
:10151000c10207000000e000f9ff3a00d0c2b300aa
:1015200080cf56000300320000c0e90080cf560093
:1015300002003a000a05e800010037008046780002
:101540000b00e00005003500e18f5500030032007c
:1015500040022000808f5500060034006044b8002f
:101560000c00e000720032007fb09700000e78009f
:10157000480037000b00e0000e003200f08f5500ed
:101580001a003a0000c3b3009a4f100017003a0047
:101590001a40900081c7b300814f50000300320011
:1015a00081c5b300814f500010003a000a85e80061
:1015b0000e003700ab00200000c3b3009a4f1000ac
:1015c0000a003a001a40900081c7b300814f5000d2
:1015d000040032008b00200081c5b300814f500011
:1015e00002003a000a85e8000b0120000a0078009a
:1015f000000278000400780001c3b300b0cf1000ef
:10160000fbff3200040778006044b800b4b79f00c5
:101610000d003700e1b1210081405000c1ef9f0073
:101620006159b9000800be00051107004fea970094
:101630000401fb00cf91de00c8b79f00d9b79f001f
:1016400002044000838448008e0278003e00fb00c4
:1016500085bf9f00780207000b01780080007800aa
:10166000e0b12100b60707008fba97000000e00044
:10167000e8ff3a003fb29700850f550007003a0097
:101680006044b8000c00e00029003200ffb297006f
:10169000050e78006044b80025003700048252002f
:1016a00030b4210060c07d000000fb000002520049
:1016b0001700330011003a004fe997000200fb00c9
:1016c000cf80de000000540081805c00800f540059
:1016d000818f5c00090039006159b90085bf9f0006
:1016e0006efe07008fba97004fb19700dfb19700e9
:1016f000820f5000838f5800050032002002200026
:1017000000e688000084eb008084eb0005003700d1
:10171000d0c2b30080cf560002003a00600414002b
:10172000e0841c000c00e00001003200050e78008f
:101730000800be004f0778004f06be004f05be00f0
:101740004f04be00ef00b10000000600881f7800c3
:101750000204780008017800b7fe07000800400086
:101760004f04780000000600881f7800000478000d
:1017700082017800010178008800780060ba2000ba
:10178000060007000000e000020035008040eb008a
:10179000017478004f047800000006006200fa002f
:1017a000889fbe008a1f78000005780081047800b9
:1017b000020478008300780080f92f000f004000b9
:1017c0002a0207009a979f00a9979f000000eb004c
:1017d000b09f9f001885fb008a04fb000a05ea0001
:1017e0004f55de0050022000808f54000d00320063
:1017f000e10f55000b003a000a01780088007800dc
:101800002f9097009f91970003000100a0979f00e1
:101810000000e0008e0032003f9897000000e800d2
:10182000b09f9f000a04440050022000808f5400a3
:10183000040032000900e000e6ff3a003f989700fc
:10184000840037000000eb00909f9f00809f9f0066
:10185000f0979f00e0979f00d0979f00c0979f0050
:1018600007003700c1c921000100500000004000fe
:1018700001c9210061007800df9897000100700025
:10188000d09f9f00880478000904780038457800cc
:101890008a00fb00c0c921008cfe07000000e000a8
:1018a000f0ff3a00a1c2b300814f55000e003a008c
:1018b000cf8897000180e900c08f9f00100078005a
:1018c000c09f9f000000e00005003d000000ea000e
:1018d000c09f9f005f9897000020a000d09f9f00ae
:1018e0000904e8000f003700c09f9f000000eb00d4
:1018f00005003700f2ff2700820f5000020032007f
:101900006a01b90002804000090478008804780068
:10191000b900fb000103b100e98f5000f5ff36006c
:10192000c09f9f00e0c2b300984f10000200320039
:101930000080eb0019003700a0c2b300d84f1000a0
:1019400007003a00cf8897000180e900c08f9f0010
:1019500010007800a09f9f000804e80010003700e6
:101960000000eb00a09f9f00880078000500370072
:10197000f3ff2700830f5000020032006a02b90013
:101980000400410001047800880078003101fb0068
:101990000203b100e90f5100f5ff3600a09f9f0040
:1019a000984478008900fb0080c8210047fe0700aa
:1019b0000000e000020032000804e80001003700e7
:1019c0008044eb00c97f9f0080c6b30080cf5400e5
:1019d00004003a0098cf14000a003a006640500014
:1019e00006003700c0c6b30080cf540005003a009f
:1019f00098cf140003003a0065404000c07f9f006c
:101a00000804e800e3fb2f008f81410018417800b3
:101a100081f92f008f804000a0f92f000f004000b7
:101a2000100007000000e00009003a00e1fb2f0071
:101a30008f804000a0f92f000f004000840a0700ab
:101a40000000e000020035000804e80061ff3700f4
:101a50000080eb004f0578004f04be000080fa00c4
:101a600000000600889fbe008a1f780000047800ee
:101a7000824478000305780070c6b30080cf54001c
:101a800021003c0000c0e90080cf5400d5003d009b
:101a90007240500080cf54003c0132000d003c00e9
:101aa0006c40500080cf54004f013c0000c0e90062
:101ab00080cf5400cb003d0050c2b30080cf540013
:101ac000460132007c40400080cf540046013a007d
:101ad000c400370010c6b30080cf5400c1003200ec
:101ae00004003c006940500080cf54003e013a00a1
:101af0006900370030c6b30080cf540018003200b0
:101b00000040e8000900370000c7b30080cf540050
:101b10001001320008003c0000c0e90080cf5400f2
:101b2000d90032005c003c006540500080cf54007a
:101b30002d013a000f00370050c7b30080cf54008a
:101b4000550032006340400080cf54005200320004
:101b50006540500080cf540023013a000b0137004c
:101b60001181e900820878007800900012757800f1
:101b70002301370028609000c2c6b300824f500096
:101b800007003a00110178006400510080087800d5
:101b90001000be004f89de0082017800140037007b
:101ba00012c7b300824f500003003a0011027800c0
:101bb0006800520005003700a2c6b300824f5000f3
:101bc00006003a0091027800688052008008780090
:101bd0005001be004000be00050037001180e90042
:101be0008008780010007800cf80de006109b9001d
:101bf000009cbe000294be002862900085c6b3001f
:101c0000854f52000d00320025c6b300854f5200ab
:101c100004003a000000fb00cf80de006109b9003b
:101c20000800370045c7b300854f5200030032005b
:101c3000e6c24200854f520004003a00cf80de0029
:101c40006109b900009cbe000294be003802be00cb
:101c50002803be0078009000d1c2b300e00f52000c
:101c6000e08f5a00e00f5b00e08f5b00080035005a
:101c7000881090000118a30002003200b1c2b30026
:101c8000030037000108a3005100320001c2b30075
:101c9000017578004c00370028609000c2c6b30080
:101ca000824f500008003a0011037800640053008e
:101cb000800878001002be006033b8000400be0047
:101cc0000601be001400370012c7b300824f500057
:101cd00003003a0091027800688052000500370046
:101ce000a2c6b300824f500006003a0011037800ec
:101cf00068005300800878005001be004000be001c
:101d0000050037001180e900800878001000780095
:101d10008000eb006011b800009cbe000294be0081
:101d20002862900085c6b300854f52000d00320036
:101d300025c6b300854f520004003a000080fb0026
:101d40008000eb006011b8000800370045c7b30001
:101d5000854f520003003200e6c24200854f520018
:101d600004003a008000eb006011b800009cbe0047
:101d70000294be00081090000038a3001400320046
:101d80003800be002801be00e00f5000e08f580070
:101d9000e00f5900e08f59000d00320080c7b300fa
:101da00080cf54000300320080c5b30080cf5400c0
:101db00007003a007800900001c3b3000175780075
:101dc0000000e800097578000000e8007004980041
:101dd00078009000000545006a049800894078006a
:101de0006700370028619000c0c4b300804f5100e5
:101df00006003a009103780068805300800878005c
:101e00005001be004000be000500370011017800ff
:101e100064005100800878001000be00410e0700e9
:101e2000009cbe000294be00b800900078009000b4
:101e30000100e00002003d00d1c2b30008003700fd
:101e4000881090000118a30002003200b1c2b30054
:101e5000030037000108a3000400320001c2b300f0
:101e6000017578000000e800700498007800900088
:101e7000000545006a049800894078000800780051
:101e8000210607006000370028619000c3c6b30038
:101e90001180e900834f5100220032000a003c000b
:101ea000e4c15100834f51002500320083c1e80096
:101eb000834f510013003200e8c15100834f51009d
:101ec0001e003a000a00370043c7b300834f510099
:101ed0001b003200e6c14100834f51001800320060
:101ee000e9c15100834f510014003a00050037004a
:101ef0008008780010007800485c9000084878005e
:101f0000410037008008780010007800680a9000cf
:101f1000cfa2de00612bb9000498be000690be007f
:101f200039003700800878001000780068099000b8
:101f3000cf91de000288be00330037001180e90037
:101f40008008780010007800680c9000080878007d
:101f50002d0037001180e90080087800100078001b
:101f6000cf80de006109b900009cbe000294be0073
:101f700078009000000545006a04980081c7b3000e
:101f800008007800030807001f0037001180e900ef
:101f900080087800100578006a049800d80c90003a
:101fa0000900e00004003d000a007800e9fc070099
:101fb0008004780007003700090178008000eb00fa
:101fc0000a0078005e0507000000e0000100320012
:101fd0008a045000190c98000b003700780090001c
:101fe000097578000600370078009000000545006c
:101ff0000904e00001003a0059c2b300094d78001d
:102000000000e800700498000000eb004f05780025
:102010004f04be00000006006900e1000400350026
:102020006d00e100030034000002b1000100320045
:102030000000050010000500800078001104b100c8
:10204000030035009101b10001003c000050a000e8
:102050000000060010e680000000e00001003200f1
:102060000000010000cc21000000060001087800fb
:1020700000000600889fbe00000478000100780080
:10208000820478008801780009017800110020009e
:10209000c2040700890f5000010032000004eb0069
:1020a000080078004f04be00000006000000fa009f
:1020b000e88157004fb99700c19e2100a00321007d
:1020c000020007000080fa00000006006200fa002b
:1020d000889fbe008a1f7800000578008104780080
:1020e000020478008300780080f92f000f00400080
:1020f000deff07009a979f00a9979f000000eb0062
:10210000b09f9f001885fb008a04fb000a05ea00c7
:102110004f55de0050022000808f54000d00320029
:10212000e10f55000b003a000a01780088007800a2
:102130002f9097009f91970003000100a0979f00a8
:102140000000e0008e0032003f9897000000e80099
:10215000b09f9f000a04440050022000808f54006a
:10216000040032000900e000e6ff3a003f989700c3
:10217000840037000000eb00909f9f00809f9f002d
:10218000f0979f00e0979f00d0979f00c0979f0017
:102190000700370061cb2100010050000000400023
:1021a000a1ca210061007800df989700010070004b
:1021b000d09f9f0088047800090478003845780093
:1021c0008a00fb0060cb210040fc07000000e0001b
:1021d000f0ff3a00a1c2b300814f55000e003a0053
:1021e000cf8897000180e900c08f9f001000780021
:1021f000c09f9f000000e00005003d000000ea00d5
:10220000c09f9f005f9897000020a000d09f9f0074
:102210000904e8000f003700c09f9f000000eb009a
:1022200005003700f2ff2700820f50000200320045
:102230006a01b9000280400009047800880478002f
:10224000b900fb000103b100e98f5000f5ff360033
:10225000c09f9f00e0c2b300984f10000200320000
:102260000080eb0019003700a0c2b300d84f100067
:1022700007003a00cf8897000180e900c08f9f00d7
:1022800010007800a09f9f000804e80010003700ad
:102290000000eb00a09f9f00880078000500370039
:1022a000f3ff2700830f5000020032006a02b900da
:1022b0000400410001047800880078003101fb002f
:1022c0000203b100e90f5100f5ff3600a09f9f0007
:1022d000984478008900fb0020ca2100fbfb07001e
:1022e0000000e000020032000804e80001003700ae
:1022f0008044eb00c97f9f0080c6b30080cf5400ac
:1023000004003a0098cf14000a003a0066405000da
:1023100006003700c0c6b30080cf540005003a0065
:1023200098cf140003003a0065404000c07f9f0032
:102330000804e8001801fb00e3fb2f008f81410037
:1023400081f92f008f804000a0f92f000f0040007e
:10235000100007000000e00009003a00e1fb2f0038
:102360008f804000a0f92f000f00400038080700c0
:102370000000e000020035000804e80061ff3700bb
:102380000080eb004f0578004f04be000080fa008b
:1023900000000600889fbe008a1f780000047800b5
:1023a000824478000305780070c6b30080cf5400e3
:1023b00021003c0000c0e90080cf5400d5003d0062
:1023c0007240500080cf54003c0132000d003c00b0
:1023d0006c40500080cf54004f013c0000c0e90029
:1023e00080cf5400cb003d0050c2b30080cf5400da
:1023f000460132007c40400080cf540046013a0044
:10240000c400370010c6b30080cf5400c1003200b2
:1024100004003c006940500080cf54003e013a0067
:102420006900370030c6b30080cf54001800320076
:102430000040e8000900370000c7b30080cf540017
:102440001001320008003c0000c0e90080cf5400b9
:10245000d90032005c003c006540500080cf540041
:102460002d013a000f00370050c7b30080cf540051
:10247000550032006340400080cf540052003200cb
:102480006540500080cf540023013a000b01370013
:102490001181e900820878007800900012757800b8
:1024a0002301370028609000c2c6b300824f50005d
:1024b00007003a001101780064005100800878009c
:1024c0001000be004f89de00820178001400370042
:1024d00012c7b300824f500003003a001102780087
:1024e0006800520005003700a2c6b300824f5000ba
:1024f00006003a0091027800688052008008780057
:102500005001be004000be00050037001180e90008
:102510008008780010007800cf80de006109b900e3
:10252000009cbe000294be002862900085c6b300e5
:10253000854f52000d00320025c6b300854f520072
:1025400004003a000000fb00cf80de006109b90002
:102550000800370045c7b300854f52000300320022
:10256000e6c24200854f520004003a00cf80de00f0
:102570006109b900009cbe000294be003802be0092
:102580002803be0078009000d1c2b300e00f5200d3
:10259000e08f5a00e00f5b00e08f5b000800350021
:1025a000881090000118a30002003200b1c2b300ed
:1025b000030037000108a3005100320001c2b3003c
:1025c000017578004c00370028609000c2c6b30047
:1025d000824f500008003a00110378006400530055
:1025e000800878001002be006033b8000400be000e
:1025f0000601be001400370012c7b300824f50001e
:1026000003003a009102780068805200050037000c
:10261000a2c6b300824f500006003a0011037800b2
:1026200068005300800878005001be004000be00e2
:10263000050037001180e90080087800100078005c
:102640008000eb006011b800009cbe000294be0048
:102650002862900085c6b300854f52000d003200fd
:1026600025c6b300854f520004003a000080fb00ed
:102670008000eb006011b8000800370045c7b300c8
:10268000854f520003003200e6c24200854f5200df
:1026900004003a008000eb006011b800009cbe000e
:1026a0000294be00081090000038a300140032000d
:1026b0003800be002801be00e00f5000e08f580037
:1026c000e00f5900e08f59000d00320080c7b300c1
:1026d00080cf54000300320080c5b30080cf540087
:1026e00007003a007800900001c3b300017578003c
:1026f0000000e800097578000000e8007004980008
:1027000078009000000545006a0498008940780030
:102710006700370028619000c0c4b300804f5100ab
:1027200006003a0091037800688053008008780022
:102730005001be004000be000500370011017800c6
:1027400064005100800878001000be00f50b0700ff
:10275000009cbe000294be00b8009000780090007b
:102760000100e00002003d00d1c2b30008003700c4
:10277000881090000118a30002003200b1c2b3001b
:10278000030037000108a3000400320001c2b300b7
:10279000017578000000e80070049800780090004f
:1027a000000545006a0498008900fb0008007800d5
:1027b000650007006000370028619000c3c6b300c1
:1027c0001180e900834f5100220032000a003c00d2
:1027d000e4c15100834f51002500320083c1e8005d
:1027e000834f510013003200e8c15100834f510064
:1027f0001e003a000a00370043c7b300834f510060
:102800001b003200e6c14100834f51001800320026
:10281000e9c15100834f510014003a000500370010
:102820008008780010007800485c90000848780024
:10283000410037008008780010007800680a900096
:10284000cfa2de00612bb9000498be000690be0046
:10285000390037008008780010007800680990007f
:10286000cf91de000288be00330037001180e900fe
:102870008008780010007800680c90000808780044
:102880002d0037001180e9008008780010007800e2
:10289000cf80de006109b900009cbe000294be003a
:1028a00078009000000545006a04980081c7b300d5
:1028b00008007800b70507001f0037001180e90005
:1028c00080087800100578006a049800d80c900001
:1028d0000900e00004003d000a0078009dfa0700ae
:1028e0008004780007003700090178008000eb00c1
:1028f0000a007800120307000000e0000100320027
:102900008a045000190c98000b00370078009000e2
:102910000975780006003700780090000005450032
:102920000904e00001003a0059c2b300094d7800e3
:102930000000e800700498000000eb004f057800ec
:102940004f04be00000006002f04b000889fbe00a8
:102950008a9fbe008c9fbe008e1f78000007780003
:1029600081f79f003e04be002e05be005e08900069
:102970000000e00002003d0060002000500f9800c1
:102980008e00780020fb2f000f0040005705070045
:10299000e20f50000a003a0030002000100f9800ab
:1029a000b1c9b3000ff0970081404000a0ac2100f6
:1029b000e1cf50000d003e0060ac21000b0037005d
:1029c0000000e0000f00340030002000100f9800dd
:1029d000b1c9b3000ff197008140410020ad210043
:1029e000e1cf500001003e00e0ac2100ee0090007d
:1029f000b0487800b06878001040780090409800a7
:102a0000f30037000000e00005003a0022fb2f0031
:102a10000f014100001978008001eb00e70037004a
:102a20006022b8006033b8000800be000a01be0092
:102a3000840a07000000e00001003d000bf0a20046
:102a4000705927009f9897000088b900026a2800f3
:102a500013002000df0a0700640650009c9f9f00bf
:102a600013003b0063061600c0ff2f00000666003f
:102a70008c01ea00939f9f006dad21000800be000d
:102a80000a01be00070037000c08a3000300320053
:102a90003d02be002d03be00710b07000c86d10065
:102aa000e88646000c00e000f7ff3c001800370005
:102ab0000c00e00018003200c0ff2f000006660086
:102ac0009c9f9f006dad21006000b80002002000b7
:102ad00003ff2300070037000c08a30003003200a7
:102ae0003d02be002d03be005d0b07000c86d10029
:102af000e88646000c00e000f7ff3c000002be0044
:102b00000203be000800be000a01be00570a07000b
:102b10000004be000205be00de08900060c6b300df
:102b20000ff29700804f5200040032006000200036
:102b300062c4b300824f520002003a009f9a97008d
:102b40006a80420081004000f1b79f0001037800d5
:102b5000f30f53000200340037012000f7b79f0045
:102b600000c3b300c0779f0056fb2f000f03430044
:102b70000e007800a0b79f00060778003d003700e0
:102b80000800be000a01be00050b07000006be00db
:102b90007fb1970068015100f2b79f004240a90041
:102ba0000c0034002a0b07000002be000203be0026
:102bb0000800be000a01be009f0b07006022b8009b
:102bc00046782d0077192400250b07000004be006d
:102bd0000205be00e80047008e0020000802be008b
:102be0000a03be00b4b79f00c5b79f00d6b79f00c9
:102bf000e7b79f000c01be00010478000c0037000d
:102c0000a400200005002000c0fd2f000f004000a0
:102c1000360207006fa89700ffa897000fb1970032
:102c20009fb1970005c3b300056441000001be00d9
:102c3000e00f5100e08f5900030034000e07e90057
:102c4000e10f4700eeff3a00880078003fb497009c
:102c5000cfb497005fb59700efb59700020037003b
:102c600000c3b300806078000e07e900fcff3b0062
:102c7000688740007fb397000600e000070034003b
:102c80006022b8006033b8000800be000a01be0030
:102c9000f10907000000e000b9ff3c000e037800d6
:102ca0002fb7970051fb2f008f8040000103530086
:102cb0009f9b970067804300909f9f000200370012
:102cc0000603e9000000e9000101780082007800b5
:102cd00003c3b300b1cf1100f9ff3200909f9f00f2
:102ce000de09900061c6b3000ff29700814f5200d9
:102cf0000300320061c4b300814f520002003a0069
:102d00000000e8000a0037001000200051c6b300a0
:102d10008ff2970081cf5200050032000540780005
:102d200050c4b2000080fb000000e9004f00de004c
:102d300083014000868f5100010034008601780035
:102d40000300e0001d00350000c3b300868f510072
:102d500006003d0062c279006940400041c3b300f3
:102d6000814f520001003c00694050008300e9009f
:102d70008100410001003700840178000302e9006e
:102d800001037800a142780080cf5200faff3200a0
:102d900091c3b300814f500001003a00054be80099
:102da0000400e00005003d000201e9008301e800a5
:102db0001f9b97000603e800969f9f008ff39700e4
:102dc0008700fb001f9a97000e007800060007009e
:102dd0004f0778004f06be004f05be004f04be00ef
:102de0002f04b10000000600f0874700889fbe0056
:102df0008a9fbe008c9fbe008e1f78000004780062
:102e0000814478000205be00040678000b00e00053
:102e100002003c001b0020008acc210060c6b300e9
:102e200080cf54000e00320060c4b30080cf540045
:102e30000b00320070c6b30080cf54000300320094
:102e400070c4b30080cf540081003a00e40f460004
:102e50007f00350058089000800f56007c003d0030
:102e60000c06e80060c6b30080cf540010003200aa
:102e700060c4b30080cf54000d00320008109000f1
:102e80000038a30004003a0058089000808f5500d5
:102e900001003d005b0c9800580890000c005000a9
:102ea000500c980002003b000000eb00500c980012
:102eb00018089000e80090000c00e00026003c009c
:102ec00002c3b300827078000000e800100c980084
:102ed000d80890000100e00003003c00881090003a
:102ee0000138a30005003200e8009000e2c2b30000
:102ef000827078000000e800100c980058089000dc
:102f00008c00ea00810f500001003d000006ea003d
:102f10008c00ea00210c9800000646005c0c98002a
:102f20008b0f5600010034000b0678003c0c980013
:102f3000e800900018089000008040000c01780024
:102f40008a007800bcf80700580890000c06500072
:102f50004c0c9800900037008c8f550018003d00f5
:102f6000008040000b0178008a007800b2f807006a
:102f70001808900000804500100c98008b05560042
:102f80002b0c9800d80890000100e00003003c00e2
:102f9000881090000138a30006003200e80090007d
:102fa000e2c2b30082707800380890000000e800a8
:102fb000300c980058089000400c980076003700bc
:102fc000008040000c0178008a0078009af8070021
:102fd0001808900000004600100c98008c855500e1
:102fe000d80890000100e00003003c008810900029
:102ff0000138a30005003200e8009000e2c2b300ef
:10300000827078000000e800100c980058089000ca
:10301000808f55000100340080057800e8009000a2
:1030200018089000008040008c0045000b017800db
:1030300081f80700180890000b004000100c980061
:10304000580890008b0550002b0c98005200370058
:1030500018089000e80090009a7078000000e800de
:10306000100c9800d80890000100e00003003c001c
:10307000881090000138a30005003200e80090009d
:10308000e2c2b300827078000000e800100c9800e3
:10309000580890000000e000100034008b05e900a3
:1030a000808f55000100340080057800e800900012
:1030b00018089000008040008a00e8000b017800aa
:1030c0005df80700180890000b004000100c9800f5
:1030d000580890008b0550002b0c9800e8009000d9
:1030e0001808900000804000095878000007e800a8
:1030f0000c00e00004003500b1c2b30001487800c4
:103100008e04780004003700d1c2b3000148780073
:103110008e0478000c06ea007d8557008006eb00df
:1031200009003700a20020008c0078007280570050
:10313000470007007fb097008fb89700016d7800b7
:10314000000678008d06e8000c00e000f5ff3c006a
:103150000d00e00009003a008e04780000c3b300bf
:10316000805c7800050037008d06e900fc80570080
:1031700061c07e0002c3b300825c40000d00e0002d
:10318000f9ff3c00e8009000180890000080400023
:1031900080845400390c980008109000740060007e
:1031a000f00f50000e003a00980890007800900050
:1031b00000804000a808900001004000b80890007e
:1031c00001004000c808900001004000f80890008d
:1031d000810f500002003d0000805000000c98005c
:1031e0004f0778004f06be004f05be004f04be00db
:1031f0000f01b10000000600881f7800020478006b
:10320000080178000cf80700080040004f0478001f
:10321000000006000000fa00881f78000004780013
:10322000ea8157003fb9970088007800c08f2100dd
:10323000a6fb07000000e000020035008040eb0024
:10324000017478004f0478000080fa000000060046
:103250008002780001037800110009000203d80001
:1032600080017800830a78000299b90002015300b6
:10327000920298000500780000000600889fbe00ba
:103280008a9fbe0080047800010478002c0037007b
:10329000c800900068009000808f50000400390042
:1032a00008007800d10007000000e000370035007a
:1032b000004020001800600009003200a10020003a
:1032c000090078004cf80700800578000b00e0004a
:1032d00003003200618514000a85450004003700b0
:1032e000090078001bf80700000578008005eb0056
:1032f00048009000e8009000808050008a8f5000c5
:1033000002003100010578008005eb000a01780019
:1033100089007800c8f70700480090000a004000c4
:10332000400498000b00e000040032000800780020
:10333000660507000000e00014003a008a8444009b
:103340001904e000d2ff3a0000802000180060005d
:1033500006003200080078005c0507008000780055
:103360000080eb000100e00009003a0001c02000ed
:10337000988060000000eb000500320048009000db
:10338000600498000000eb00010037000080eb00b3
:103390004f05be004f04be0000000600889fbe001f
:1033a0008a9fbe008c9fbe008e1f780000067800aa
:1033b0000104780002007800830478000881b900d5
:1033c000020778000200e000420032000800e0003e
:1033d0004100320082057800c90090006900900029
:1033e000808f500004003900090078007f0007003a
:1033f0000000e000290035000040200019006000b6
:103400000a0032000b017800a10020000c007800b7
:103410004b000700800678000d00e0000600320037
:10342000610516000a854600040037000b05780088
:103430008006eb00010037000b0578004900900082
:10344000e9009000808050008a8f50000200310017
:10345000010578008006eb000a0178008c007800f6
:1034600075f707008a855500490090000a00400062
:10347000c00498000d00e00004003200090078004c
:10348000120507000000e00004003a000b00e00015
:10349000020032000a064600cfff370000802000fd
:1034a00019006000020032000900780007050700db
:1034b00000c02000190060000200320049009000a6
:1034c000e00498008b055700110009008885d8009a
:1034d000010037000000eb004f0778004f06be00e8
:1034e0004f05be004f04be0000000600881f780094
:1034f0008a9fbe008c9fbe00000478000205be00bb
:103500000406be000401be000a00be003108070028
:10351000008cbe000c01be004909070000055500e3
:1035200081855d002a0498003b049800080078001b
:103530004f06be004f05be004f0478000000060095
:1035400003003700b0cf1000050032000201e9008f
:10355000800178000200e000faff3a000000050058
:103560000300780000000600000178000700370023
:1035700086cf520002003a00008051000000060091
:10358000344378000604e000f9ff3a008201780035
:10359000b24278000504e000020032000102780027
:1035a000f7ff37000080510000000600000178009e
:1035b0000800370081027800354378000604e000f7
:1035c00002003a000080510000000600864f5200c1
:1035d000f9ff3a0082017800324278000404e000ea
:1035e000f4ff3a000080510000000600889fbe00f2
:1035f0008a1f780000047800c800900068019000dd
:103600000000eb00828f50003c0039001800780069
:103610002200290002016000e20f51000700320081
:10362000012024000000e00001003d0001202000f6
:10363000008c70000080eb00300037000200260094
:1036400002006000820f500009003a00380090002c
:10365000808f500006003900080078009b040700a6
:10366000800078000080eb000100e00023003a00b9
:103670001805780000c020000000650018003a001e
:10368000a80490006002200008004000808f5400d1
:1036900013003a0000202000fe05070020049800d7
:1036a0000000e00005003a00290498004904980051
:1036b0008904e80039049800080037000a60a00077
:1036c0000a0c78004004980001202000808040000f
:1036d00031049800400c9800500c98001a04070020
:1036e0002800900050049800380090006004980072
:1036f00000002600180c70000000eb004f05780059
:103700004f04be0000000600cf04b000889fbe003a
:103710008a9fbe008c9fbe008e1f78000006780036
:10372000814678003c00be002c01be00d0979f006f
:10373000e1979f00f2979f00839f9f0010c6b30000
:1037400080cf56001200320010c4b30080cf560064
:103750000f0032005c0890000000e00002003d0015
:1037600060002000090037000000e00008003a0077
:1037700070c6b30080cf56000300320070c4b3009f
:1037800080cf560002003a0010002000500e980032
:103790008c00780080fa2f000f004000d301070052
:1037a000e20f50000f003a0030002000100e980089
:1037b000c0a4210011c6b30081cf56001900320009
:1037c000e4c0400081cf56001600320000a5210061
:1037d0008140e80081cf560012003a00c0a42100c9
:1037e000100037000000e00014003400300020001a
:1037f000100e980040a5210011c6b30081cf5600dd
:1038000008003200e4c0400081cf560005003200bd
:1038100080a521008140e80081cf560001003a00d8
:1038200040a52100ec009000b0487800b068780016
:103830001040780090409800a601370011c6b300f0
:1038400081cf56000300320011c4b30081cf56006f
:103850000e003a00ec00900002c3b30082587800da
:103860006106980082c5b30013c6b30083cf56002b
:1038700001003a0082c7b3008258780061069800c0
:10388000fc0090008180e800710698000000e000d4
:1038900005003a00c0979f008001eb0022fb2f003b
:1038a0000f0141008701370010c6b30080cf5600da
:1038b0000600320010c4b30080cf56009a003a00d0
:1038c000d1a62100d1b79f0002003700c2a5210078
:1038d000d2b79f005c0890001b0220000000e000af
:1038e000010035008005e8000b05e8006022b80003
:1038f0006033b8005f909700ef9097007f9197003a
:103900008f999700cf060700000278003c00be00a8
:103910002c01be000400e00001003d0003f0a20005
:10392000d0979f00e1979f00f2979f00839f9f0091
:10393000cf919700e4815100c3979f000040eb00b6
:10394000a0779f003efb2f000f0747003100370094
:10395000c201200003002000a0fa2f000f00400049
:103960006c0407005f909700ef9097007f9197009d
:103970008f99970090b79f00a1b79f00b2b79f00a3
:10398000c3b79f00860707000004be006705550007
:103990004240a9000c003400ad0707000002be0041
:1039a0000203be001fb09700afb097003fb1970071
:1039b000cfb1970020080700d0979f00e1979f00a4
:1039c000f2979f00839f9f006707470070002000c9
:1039d000050037006f676400cc48dd004444de001a
:1039e00008847000c4ccde00e00f5400e08f5c005f
:1039f000050034000000e900e10f4000f5ff3a0047
:103a0000010037000067eb000000e900fdff3b000c
:103a1000670747000a00e000090034006022b80090
:103a20006033b8005f909700ef9097007f91970008
:103a30008f999700880607000000e000c4ff3c0053
:103a400032fb2f000f014100020757008e01780062
:103a50008b0f5700010034008b0178000300e00059
:103a60002b0035000040eb008e8f51000a003d0016
:103a700082fa2f000f01410003004100b04890007e
:103a8000f0c0b300e7cf500003003c000040eb0063
:103a900001003700810178008300e90034fb2f002a
:103aa0000f0242000101420012427800804f520092
:103ab000f8ff3200ef4f500001003a000449e800df
:103ac0000100e00007003d008301e8004f909700ef
:103ad00064004000c0979f0022fb2f000f014100af
:103ae0000200370032fb2f000f0141000300780075
:103af00005003700e24078008100fb005fb29700cc
:103b0000e4c07800017178000000e900f9ff3b0093
:103b10005c0890000000e000ea003d000300e900be
:103b2000500e9800e70037005f949700ef949700dd
:103b30007f9597008f9d97006022b8006033b80092
:103b40000800be000a01be003e0607000000e000bb
:103b500005003d000bf0a200d8979f00e9979f0059
:103b6000fa979f008b9f9f0070592700cf90970076
:103b70000088b900026a280013002000950607009b
:103b800064045000c8979f0015003b0063041400b4
:103b9000c0ff2f00000464000800ea00c0979f00e7
:103ba0005f909700ef9097007f9197008f99970013
:103bb000eaa72100070037000808a300030032002d
:103bc0003a02be002a03be00250707000884d10080
:103bd000680545000800e000f7ff3c001a003700c8
:103be0000800e0001c003200c0ff2f000004640049
:103bf000c8979f00eaa721006000b80002002000db
:103c000003ff2300070037000808a3000300320069
:103c10003a02be002a03be00110707000884d10043
:103c2000680545000800e000f7ff3c000002be0008
:103c30000203be005f909700ef9097007f9197007e
:103c40008f99970009060700d0979f00e1979f0082
:103c5000f2979f00839f9f005c0f900060c6b300a7
:103c600080cf5600040032006000200061c4b30021
:103c700081cf560002003a00cf9097006a80400042
:103c80000e074000f30f5700010034003e012000f2
:103c900000c3b300a0779f003bfb2f008f8545003a
:103ca000350037005fb09700efb097007fb1970005
:103cb0008fb99700ba0607000004be0068075700d6
:103cc0004240a90010003400e10607000002be00d7
:103cd0000203be005fb09700efb097007fb197007e
:103ce0008fb99700540707006022b80046782d006e
:103cf00077192400da060700d0979f00e1979f000c
:103d0000f2979f00839f9f00e88545008a0020006e
:103d10000801be000c003700a400200005002000b0
:103d2000a0fd2f000f004000f0fd07005fa89700e6
:103d3000efa897007fa997008fb1970004c3b30045
:103d4000846541000001be00e00f5100e08f590082
:103d5000060034000a05e900e10f4500eeff3a00d5
:103d60000200370000c3b300806578000a05e9004f
:103d7000fcff3b00e88545000e00e0000d0034002c
:103d80005f909700ef9097007f9197008f99970031
:103d9000d0b79f00e1b79f00f2b79f0083bf9f009d
:103da0006022b8006033b800ab0507000000e000f7
:103db000bcff3c0031fb2f008f8040008185550007
:103dc0004f91970067004100c0979f0002003700a5
:103dd0008b05e9000000e90001017800820078000d
:103de00003c3b300b1cf1100f9ff3200c0979f00a9
:103df000dc09900061c6b30081cf56000300320099
:103e000061c4b30081cf560002003a000000e80010
:103e1000090037001000200051c6b30081cf5600c2
:103e2000050032000d40780050c4b2000080fb0055
:103e30000000e9004f00de00830140008b8f51003d
:103e4000010034008b0178000300e0001d00350004
:103e500000c3b3008b8f510006003d0062c27900a1
:103e60006940400041c3b300814f520001003c0053
:103e7000694050008300e9008100410001003700e3
:103e8000840178000302e90001037800a142780070
:103e900080cf5200faff320091c3b300814f50002f
:103ea00001003a00054be8000400e00005003d0079
:103eb0000201e9008301e8004f9297000402e80044
:103ec000c4979f004f9297008d4078000c007800b7
:103ed0001a0407004f0778004f06be004f05be00ca
:103ee0004f04be00cf04b10000000600889fbe0052
:103ef00000047800e68440001900d0004500de0090
:103f0000f27f2000820f500010003a00000ceb00fe
:103f1000990478006f816400200020001b003a00a3
:103f2000210190000200e00018003a001101900009
:103f30000200e00015003a00100020001100e0002f
:103f40001200320020002000100037000000e000c6
:103f500004003a0001007800a20207000000e0001f
:103f600008003c00f20028001901610001fe230056
:103f7000810c710021c02f00010c40000080eb007b
:103f800002003700000ceb000000eb004f04be0005
:103f900000000600fc874700889fbe008a9fbe0085
:103fa0008c9fbe008e1f78000006780080c5b3008d
:103fb00080cf50000a0032007740400080cf500090
:103fc0000a0032006940400080cf50000b003200f0
:103fd00070c7210080bf9f00ae0020000a0037009c
:103fe00062c6210082bf9f000600370073c7210010
:103ff00083bf9f008e0020000300370074c721009c
:1040000084bf9f000e0120003c02be002c03be00b6
:104010000605be000404be0040c6b30080cf5000b9
:10402000030032006540400080cf50000b003a0092
:10403000e00f5200e08f5a00e00f5b00e08f5b0062
:1040400006003d006000b8006011b8000404500094
:10405000858458000605590087855900e80f5700e8
:104060000400320040002000f00f570038003a00f2
:104070000100370030002000e00f5400e08f5c00aa
:10408000e00f5d00e08f5d0004003a00dc08900066
:104090008d0120000100e000060032008e00e900e2
:1040a000888060008fba9700e5c07800f1ef9f002c
:1040b0007d012000800078008100e90005003300c8
:1040c0008b05d1000a85d3008984d3000884d300ee
:1040d000f9ff3700089ebe000a96be0012003700a6
:1040e0008d06e9008e00e900848060000fb997001a
:1040f000e2c1780082fd2f000f01410003f17e0034
:10410000800078008100e900050033008783d1003a
:104110000683d3008582d3000482d300f9ff3700e1
:10412000049ebe000696be003c02be002c03be00ec
:10413000e00f5200e08f5a00e00f5b00e08f5b0061
:104140008b0034000d00e000e5ff3c0088003700e4
:104150002c60900081c6b300814f50000b003200ec
:1041600006003c000004e00008003200e6c05000f9
:10417000814f50004e003a0004003700c1c6b30022
:10418000814f50004a003a00210037000800e0004b
:1041900004003a005c0890008d0120000000e0005f
:1041a00006003200110009000e84d8000fb99700f4
:1041b000e2c07800f1ef9f007d01200011000900ae
:1041c0000e84d8000a003700110009000e04d80040
:1041d0008d06e9000e81b900020454008fb89700e3
:1041e00061417c0081fd2f008f80400082f07e00c5
:1041f000000478000800e000020032000d00e0003a
:10420000f1ff3c00cfc4de00614db900250037004e
:10421000e00f5400e08f5c0004003a005c0890005e
:104220008d0120000000e000070032006171b9003c
:104230000800be00a9f307008fb99700e34178009a
:10424000f3ef9f007d0120006171b9000800be00fe
:1042500092f307000b0037006171b9000800be003f
:10426000dc0407008d06e90000f1b90002045400e7
:104270000fba9700e4427c0084fd2f000f02420039
:1042800005f27e000004be00e00f5000e08f5800f1
:10429000020032000d00e000efff3c004fcdde00d9
:1042a0008a057800089ebe000a96be0030003700de
:1042b000e00f5400e08f5c00e00f5d00e08f5d00d8
:1042c00004003a005c0890008d0120000000e0002e
:1042d000090032006172b900612bb9000800be000c
:1042e0000a01be007c0607000fba970064427800fe
:1042f000f4ef9f007d0120006172b900612bb900cd
:104300000800be000a01be006c0607000d00370061
:104310006172b900612bb9000800be000a01be003d
:10432000710607008d06e90000f2b900040454008c
:104330008fba970065427c0085fd2f008f82420076
:1043400084f27e00009ebe000296be003c04be00c9
:104350002c05be00e00f5400e08f5c00e00f5d0014
:10436000e08f5d00020034000d00e000e8ff3c003b
:10437000e80f570010003a000c1090000038a3001e
:104380000d003200f78f560006003e0085fd2f001d
:104390008f824200e5c07e0000c3b30080cf500092
:1043a000050032008d06e90002c3b30081fd2f0035
:1043b0008f80400082f07e0078811600120e9800f7
:1043c0006c00900083fd2f008f8141008d804100a3
:1043d00099f307001c089000dc089000810f500042
:1043e00006003d0000805000000e98000c10900068
:1043f0000040a100001698000f0037000100e00007
:104400000d003d008c109000f4806000f08f500093
:1044100009003a007c099000fc00900081005100e6
:104420000c09900082805000008050004240a9009a
:1044300001003400000e98004f0778004f06be00c0
:104440004f05be004f04be00cf01b10000000600c2
:104450000400fa00889fbe008a9fbe008c1f78006f
:104460000004780001067800f80d900078009000b4
:104470008085550008089000808555001808900038
:1044800080855500280890008085550038089000e8
:104490008085550048089000808555000002220064
:1044a00090bf9f0000032300a0bf9f000810900052
:1044b0000028a30015003a000b00e00013003400b0
:1044c0000b0578008a047800e20f550001003600e1
:1044d00029002000c801900009017800ee805700f3
:1044e0005800900003000100500498000000e00014
:1044f0008c0032006808900009004000600c9800b1
:10450000090555004240a900eeff3c0078019000eb
:104510000200e0000c003400c80190008c0078001c
:104520005800900003000100500498008080eb00c8
:104530000000e0007c003200e80890007800900065
:1045400000804000600c9800880c90000900e0009a
:104550001100340009057800e28f54000100360094
:104560002a002000c80190000a017800ec80570062
:104570005800900003000100500498000000e00083
:1045800068003200680890000a004000600c980043
:104590008a845400edff3700180990000200e00003
:1045a0000c003400c8019000e80090005800900012
:1045b00003000100500498008080eb000000e00040
:1045c00059003200e8089000180890000080400070
:1045d000600c9800a80c90000900e0001100340065
:1045e00009057800e28f5400010036002a002000ff
:1045f000c80190000a017800ec8057005800900034
:1046000003000100500498000000e0004500320063
:10461000680890000a004000600c98008a845400ea
:10462000edff3700380990000200e0000e00340072
:10463000e80090001808900080804000c8019000b9
:104640005800900003000100500498008080eb00a7
:104650000000e00034003200e808900038089000c4
:1046600000804000600c9800c80c90000900e00039
:104670001100340009057800e28f54000100360073
:104680002a002000c80190000a017800ec80570041
:104690005800900003000100500498000000e00062
:1046a00020003200680890000a004000600c98006a
:1046b0008a845400edff3700081090008000eb0062
:1046c0000028a300180032000b00e00016003400a0
:1046d0008b04780009057800e28f54000100360051
:1046e0002a002000c80190000a017800ee805700df
:1046f0005800900003000100500498000000e00002
:1047000008003200680890000a004000600c980021
:104710008a8454004240a900eeff3c008000eb0078
:10472000010037008080eb00010078004f06780020
:104730004f05be004f04be000080fa0000000600d6
:10474000604422009b003700881f7800a8cc21001d
:104750001804e00003003a00f9ff070020c0b3008e
:10476000004c78004f04780000000600889fbe00cf
:1047700000047800080078005400070080047800e6
:1047800000042000180060000200320028009000a1
:104790005b0107000000eb00200498003840900007
:1047a0000004e000050035000000fb0042f10700b6
:1047b0000000e000010032008084eb00181090003f
:1047c0000000e0000800320086f107000000e00071
:1047d000010032008084eb001810900048010700af
:1047e0000000eb0010149800000820001800600082
:1047f000150032000001eb006000b800c3a32100e7
:104800000202d00063027a00880f520005003a00cd
:104810000000400081804800008041000008eb005b
:104820000600370061004000e08048000201e80017
:10483000e80f5000e08f5800f0ff3a0008007800c1
:104840002f0107000e003700000c780000c0eb00bd
:1048500030449800600220000800400020049800c6
:104860004004980050049800400c980060049800a0
:10487000500c98007004980076004400000c9800da
:10488000090078004f04be0000000600881f780071
:104890000004eb006140b800e2ff2f00f3ff2f009f
:1048a00067040700a2a42100620078000000e00075
:1048b00001003200adff07000804e800e80f5400d3
:1048c000f4ff3a004f04780000000600889fbe0005
:1048d000000478000800e0000e003a008004eb00bd
:1048e0008800d000c0a32100610078000000e00033
:1048f00004003200f5ff07000000e00001003d0069
:104900008084eb000804e800e80f5400f4ff3a004c
:104910002500370000002200180060008004eb0032
:1049200021003200a80490000f0037000901510057
:10493000384090000000fb0089007800e7f0070095
:104940000000e00007003c002800900040049800b0
:1049500060049800500c98001890a0008084eb0030
:10496000110037008084440048019000828f540079
:10497000eeff39002800900040049800980078006d
:1049800002c020000281600001003a00380090005f
:1049900001e8a30002003200600498000100370023
:1049a000500c98008004eb00090078004f04be0012
:1049b00000000600010020000100e00008003200b5
:1049c000010080000100e000050032008100e900e4
:1049d000010088008100d0000200800000b1780052
:1049e00000000600e60040001101780005002800e4
:1049f000850261006f0161008208780002003200c8
:104a00001200200011003700a001900012002000c9
:104a10000300e0000d003a00900190000300e00068
:104a20000a003a001000e00008003a0036003700a3
:104a3000640340009608780080017800530b7800ea
:104a40009009780004087800700151001102780084
:104a50000400e000f6ff320013003700640240005b
:104a6000140378004f33de00838141008308730014
:104a700080017800d3037800cf3bde001403780078
:104a800006034300068a7300130278000402420002
:104a9000100378004f33de00860972009001780021
:104aa000038841000201e90091017800ef8f510075
:104ab000eaff3600100037008001780053037800c9
:104ac0004f33dd001002d10004087300640240007f
:104ad00094037800cf3bdd001303d1008689730077
:104ae000110378004f33dd009401d100030a7300f5
:104af0009108d1000201e80091017800ff8f510078
:104b0000edff3e00ef88610091887200020078009e
:104b1000000006000400fa00889fbe000004780030
:104b2000e6044400190078008000d000c508de00cb
:104b3000f47f2000848f50000e003a00ef006000e8
:104b4000200020006b003a00a80090000100e00067
:104b500068003a00980090000100e00065003a000b
:104b6000100020001800e000620032002000200049
:104b7000600037000100e0000a003a0008007800f9
:104b8000c2bf9f00d3bf9f0096ff07008000780040
:104b90000000eb004fb99700dfb997000100e0007b
:104ba00054003c004f88de00028140008301480031
:104bb000e07f2000800f5100e08f59000d0034008d
:104bc0001900e00004003d006000b8000200200071
:104bd00003ff2f00030037006000b8000200200030
:104be00003ff2700009cbe000294be0010002000be
:104bf00040003700e00f5100e08f590005003400fd
:104c00004411dd00f000280019006000800c7100e4
:104c10003700370019007800040028000402600003
:104c20006f0060000040a000800c7800d0fc2f00d6
:104c3000f1ff2f00800f5100818f590006003d00c9
:104c4000840c78000000eb00200498001004980009
:104c5000000ceb00270037006f0141000600370011
:104c600008007800500c7800e40044001108780037
:104c700099087800800ceb00700051007001410031
:104c800001fe2f0082804000ef8f4000f4ff3500ce
:104c90000000ea0015003200880078007001100062
:104ca000d1027800822add00980178008019de00a8
:104cb000038c72006404440098027800822add00ac
:104cc000910178008019de008388720099007800d5
:104cd0000209dd00980078008008de00010c7100f8
:104ce000990078000008de00800c7800990c7200b2
:104cf0000080eb004f04be000080fa0000000600b8
:104d00000000e0002f003200c0017800e38f510066
:104d10002c0036000308a3002a003a0031e6800088
:104d20000100e00002003200810f50000400310059
:104d30001100980030e688001600370082007800e5
:104d4000110190000200e00002003200800f5100cb
:104d5000faff39001102780084824000850f50006c
:104d600018003900808f520003003a008308420087
:104d700001007800070037000200e0000300320065
:104d800083014000830f51000e003900120098008b
:104d900090009800900090000100e00009003200af
:104da00010014000828f500006003a0042cc2100e2
:104db0000009eb00100178001108410091009000fb
:104dc0001100980000000600889fbe0000047800d3
:104dd00021e680000100e0000200320001007800be
:104de0000d00370031e6800060cc21000400370060
:104df000910f5400250036000180e80091009000da
:104e00000100e000faff3a0010003700920f540052
:104e10001e0036000280e800100178000200e00069
:104e2000faff3a001101780031e6800060cc2100e1
:104e300004003700910f5400140036000180e80090
:104e400091009000828f5000faff3a0069e68000de
:104e5000888f540001003100880478000900780030
:104e6000680107000000e00004003a00888f540049
:104e7000050032008904d100f5ff370009187800d9
:104e80009fff0700d2ff37000000eb004f04be0079
:104e900000000600881f7800630440000800a1009d
:104ea0008000eb00800f540021003600e30f540017
:104eb00001003e004800200008007800c2ff070003
:104ec0008000eb000000e000190032009000780044
:104ed0009101780064815100880f51000300310076
:104ee0001101900002087800070037000881400097
:104ef00002087800910190001301980010017800d9
:104f00001109140088087800100178000000eb00f7
:104f10000200e00004003200920190000300e00073
:104f2000010032000280e80020e688008180e8006d
:104f3000010078004f04780000000600f087470069
:104f4000889fbe008a9fbe008c9fbe008e1f780087
:104f500000047800814478000205be000406780051
:104f60000b00e00002003c001b002000eacc210006
:104f700060c6b30080cf54000e00320060c4b3009e
:104f800080cf54000b00320070c6b30080cf5400b5
:104f90000300320070c4b30080cf540099003a007f
:104fa000e40f46007f00350058089000800f56003f
:104fb0007c003d000c06e80060c6b30080cf5400c2
:104fc0001000320060c4b30080cf54000d003200e6
:104fd000081090000038a30004003a005808900020
:104fe000808f550001003d005b0c98005808900030
:104ff0000c005000500c980002003b000000eb0039
:10500000500c980018089000e80090000c00e00098
:1050100026003c0002c3b300827078000000e80064
:10502000100c9800d80890000100e00003003c003c
:10503000881090000138a30005003200e8009000bd
:10504000e2c2b300827078000000e800100c980003
:10505000580890008c00ea00810f500001003d00cc
:105060000006ea008c00ea00210c980000064600c9
:105070005c0c98008b0f5600010034000b06780082
:105080003c0c9800e8009000180890000080400058
:105090000c0178008a00780067f00700580890003b
:1050a0000c0650004c0c9800be0037008c8f550049
:1050b00018003d00008040000b0178008a00780055
:1050c0005df007001808900000804500100c980063
:1050d0008b0556002b0c9800d80890000100e000ca
:1050e00003003c00881090000138a3000600320045
:1050f000e8009000e2c2b3008270780038089000a7
:105100000000e800300c980058089000400c98000f
:10511000a4003700008040000c0178008a0078006d
:1051200045f007001808900000004600100c980099
:105130008c855500d80890000100e00003003c0079
:10514000881090000138a30005003200e8009000ac
:10515000e2c2b300827078000000e800100c9800f2
:1051600058089000808f55000100340080057800b9
:10517000e800900018089000008040008c00450076
:105180000b0178002cf00700180890000b0040007d
:10519000100c9800580890008b0550002b0c9800bc
:1051a0008000370070c6b30080cf54000300320087
:1051b00070c4b30080cf540012003a005808900029
:1051c000808f550004003d00081090000038a300b7
:1051d00001003a005b0c9800580890000000e900bc
:1051e000500c980002003b000000eb00500c9800af
:1051f00070c6b30080cf540009003a0059c6b3000e
:105200000c00370010c6b30080cf540006003200f7
:1052100010c4b30080cf540006003a0004003700e9
:1052200059c4b3000300370009c7b30001003700b9
:1052300009c5b30018089000e80090009a70780043
:105240000000e800100c9800d80890000100e00071
:1052500003003c00881090000138a30005003200d4
:10526000e8009000e2c2b300827078000000e8001d
:10527000100c9800580890000000e0001000340066
:105280008b05e900808f550001003400800578000f
:10529000e800900018089000008040008a00e800b4
:1052a0000b017800e4ef0700180890000b004000a5
:1052b000100c9800580890008b0550002b0c98009b
:1052c000e80090001808900000804000095878001d
:1052d0000005e8000c00e00004003500b1c2b30096
:1052e000014878008a06780004003700d1c2b30074
:1052f000014878008a0678000c06ea00fd85570010
:105300000007eb0009003700a20020008c007800a5
:1053100072805700cef707007fb097008fb89700d4
:10532000816d7800000678000e07e8000c00e000b0
:10533000f5ff3c00e10f570013003c0050c6b300de
:1053400080cf54000300320050c4b30080cf54001b
:1053500003003a008a06780000c3b300805e78003c
:105360000e00e00008003a0000c3b300805e780041
:10537000050037000e07e900fc80570061407f0000
:1053800002c3b300825e40000e00e000f9ff3c0063
:10539000e8009000180890000080400080865600c9
:1053a0003d0c98000810900074006000f00f500051
:1053b0000e003a00980890007800900000804000ad
:1053c000a808900001004000b808900001004000cb
:1053d000c808900001004000f8089000810f5000bc
:1053e00002003d0000805000000c98004f0778003c
:1053f0004f06be004f05be004f04be000f01b100b6
:1054000000000600800078000000eb000100e000d2
:1054100005003400010078007bee0700e10f40003a
:1054200001003a000000eb000000060000c0da00b6
:105430000000060000c0da000000060000c0da002c
:10544000000006008f1fd100030307008f87e900cb
:105450000000e00000000600809feb00fe02070055
:105460008f87e9000000e000000006002800fa0035
:10547000889fbe008a9fbe008c9fbe0003866b0083
:105480008f0007006400e100440032006408e1007e
:105490004a0032006100e100460032006108e1008c
:1054a00049003200ec0647006000b8003d02be0033
:1054b0003d03be00f48657006011b8003d04be00f5
:1054c0003d05be007d0320000b0037000000a0005a
:1054d0008d06e900130032000402420085824a0072
:1054e00006034b0087834b0000004000818048008a
:1054f00002014900838149000802520089825a0052
:105500000a035b008b835b00f0ff3b000802420054
:1055100089824a000a034b008b834b008d06e90009
:10552000edff3a008482720086827200f707b200b3
:105530008782720001003200150020001e049000d6
:105540003e0b900006035400e63fb0000368a30042
:10555000070032000000a7000500a0008301d10071
:105560000281d3008180d3000080d3000603e800cd
:105570008301d1000281d3008180d3000080d30059
:105580000002eb000482d2002100070003f0a1001a
:105590000cf0a70003f0a0005d0037006402470094
:1055a0006408e100570032003400be003401be0040
:1055b000f6ff37006108e100520032006011b800c8
:1055c0006000b800f1ff370003ff27000200200051
:1055d000fbff3700839f68000100e00002003d00f0
:1055e00060001000e08018000300e00002003d00b1
:1055f00060011100e0811900a8ee07004f00e000f3
:1056000002003b0060001000e0801800000006006f
:105610001800200057002000080453000d003d0032
:105620000600200097fc2f000740e1001e00340018
:1056300084827200610260008301d1000281d30084
:105640008180d3000080d3000804e800f8ff3a000e
:105650004700200061046000050474000404640035
